:020000040000FA
:0200000068286E
:0800080005288B13CF0003084B
:10001000CE0083120B110C1C102885153021851180
:100020009F0A910A3C301102031D252891019E0A66
:10003000900A3C301002031D252890019D0A8F0A6A
:1000400018300F02031D25288F014E0883004F082A
:10005000051EAD2809009900190D820706144228D3
:1000600085144228861442280514422886174228FF
:1000700006174228061642280615422886154228E9
:10008000051542281C0899001B21990B44280610CD
:1000900085108610051086130613061206118611A8
:1000A000051108009A004D30840002309B00800149
:1000B00063201A02031C5F289A00800A58288403D0
:1000C0009B0B572808001B088207000001340A34E4
:1000D0008B0183160430810020308600F0308500CB
:1000E00083128501860185151221851112218F0148
:1000F00090019101970104309C008B168B17D22838
:1001000010081702031D8728861E872880280C10D8
:1001100085150F0894001008950095080319B7205D
:10012000033096001221140852204D082B201B2169
:100130004C082B201B211B211B211B2115085220A1
:100140004D082B201B214C082B201221960B9228A6
:1001500085110C141008970080288B170C1085014E
:100160008601051EB128861ED2280C1480281C0882
:10017000980001309C0005302B2002302B200730E6
:100180002B2003302B2001302B2009302B20043072
:100190002B2008302B2000302B2006302B20180875
:1001A0009C0008000C108515B720B7201221810192
:1001B0009F018F0191010F0852204D082B20302103
:1001C0004C082B201B21861E8F0A861E9F0118308B
:1001D0000F0203198F0103301F02031DDA28851156
:1001E0001B2185151B2185111B21851581019F016F
:1001F00090019101100852204D082B2030214C080D
:100200002B201B21861E900A861E9F013C30100267
:100210000319900103301F02031DF928B72085112F
:100220000C14802865308D0007308E008D0B192945
:100230008E0B16290800A2308D0001308E008D0B28
:1002400022298E0B1F292429080031308D0004300B
:100250008E008D0B2C298E0B29292E292F29080081
:0A02600087308D008D0B3229080055
:02400E00F03F81
:00000001FF
