S010000061746D65676134382E7372656339
S11300002BC045C044C043C042C041C040C03FC0F3
S11300103EC03DC03CC06CC33AC039C038C037C0D4
S113002036C035C034C033C032C031C030C02FC038
S11300302EC02DC031C432C433C434C435C436C414
S113004037C426C427C445C446C447C448C449C4A5
S11300504AC44BC43AC43BC411241FBECFEFD2E000
S1130060DEBFCDBF11E0A0E0B1E0EEE1FAE002C0F6
S113007005900D92A030B107D9F711E0A0E0B1E0EE
S113008001C01D92AE32B107E1F708D2C6C4B8CFA1
S1130090813011F1823019F143E050E0E82FF0E0B3
S11300A029B1EE0FFF1FE65FFE4F80819181880F1B
S11300B0991F906E30E002C0359527954A95E2F776
S11300C021703070822B932B9183808320E08050A9
S11300D0904F41F0822F089544E050E0DFCF45E097
S11300E050E0DCCF21E0822F0895813011F182307D
S11300F019F143E050E0E82FF0E029B1EE0FFF1FC3
S1130100EC5FFE4F80819181880F991F906E30E0E3
S113011002C0359527954A95E2F721703070822BFD
S1130120932B9183808320E08050904E41F0822F66
S1130130089544E050E0DFCF45E050E0DCCF21E01B
S1130140822F0895FC01138214821582168217826D
S1130150108611860895FC018681893098F08930D3
S113016041F18C30D0F437813F5F37838B3069F1B4
S11301709185918780852AE0829FC0011124380FE0
S11301803683089537813F5F378380852AE0829FD5
S1130190C0011124380F36830895108681E08783C7
S11301A031E080852AE0829FC0011124380F368314
S11301B0089581E08087178230E080852AE0829F5D
S11301C0C0011124380F3683089590E08185882377
S11301D081F691E09187CECFCF93DF93EC012C8110
S11301E0822F6AE0C2D3993069F02F5F2C838D810E
S11301F02AE0829FC00111242C81280F2B83DF91D8
S1130200CF9108958D81853021F01C828F5F8D837D
S1130210EECF1C821D82CE019EDFE9CFCF93DF9308
S1130220EC019B01FA0181858823A9F09881913022
S1130230E9F0868190E00C966AE070E0A2D36883CE
S1130240868190E00C966AE070E09BD3F90180838C
S1130250DF91CF9108959881913069F0FB018081FD
S11302609883D9018C93DF91CF910895DB018C9110
S11302708230F9F6F8CFDB018C91823089F718824D
S11302801C92F1CFF89410928000E1E8F0E08081B4
S11302908D60808381E49FE090938900809388003F
S11302A0EFE6F0E0808182608083089588E06EE864
S11302B075D208958091290190E08770907082959D
S11302C09295907F9827807F9827609128016F707E
S11302D0682B81E063D2089580912B018F70806434
S11302E060912D016295660F607E682B80912C01D0
S11302F090E08170907082959295907F9827807F8E
S11303009827682B82E04AD20895609125016F7086
S113031060688091260190E0877090708295929534
S1130320907F9827807F9827682B80E037D20895A4
S1130330EF92FF920F931F93DF93CF9300D0CDB72B
S1130340DEB78C017B0180E0A3DE882371F1C80154
S113035002DF80910001909101018E159F0590F5B7
S11303600196FF248038910590F1909301018093C8
S11303700001F8018085898387818A83CE010196F3
S1130380BE016E5F7F4FA80149DFF801848165815A
S11303904A8129810F2DABD20F900F90CF91DF911D
S11303A01F910F91FF90EF90089581E071DE8823F3
S11303B081F2C80111DF80910001909101018E1535
S11303C09F0570F280E090E0FF24F394CECFFF24E9
S11303D0F394CBCF0F93809103018F5F809303013C
S11303E08F3F49F020910201822F622F422F00E0BB
S11303F07ED20F91089580910201893021F08F5FA0
S113040080930201EFCF80E0FBCF0F9353DF64DFD3
S1130410809128016091290140912B0120912C01A8
S113042001E065D20F9108951F9380E0DED1282F5B
S11304302F702093250182958770809326011AE0FE
S1130440819FC0011124280F2093240181E0CDD184
S1130450282F2F702093280182958F708093290173
S1130460819FC0011124280F2093270182E0BDD170
S1130470982F9F7090932B0182958F70282F217055
S113048020932C018695817080932D01219F9001EA
S11304901124920F90932A011F910895EF92FF92D5
S11304A00F931F93CF93DF9343983B9A8AB1806C49
S11304B08AB95398549855988BB188638BB95E9ACE
S11304C05F9A39D1C8D180E0D2D1DCDEADDF1DDF47
S11304D003DF83E068E062D187E061E45FD1E6DEB8
S11304E08AE191E060E070E04AE050E071D280E19E
S11304F091E06AE070E04AE050E06AD281E0B7D16E
S11305007894FF2411E0EE24C0EDD7E011C080E020
S1130510BFDD882329F481E0BBDD882309F474C09E
S113052081E0A5D111E0EE24E394CE010197F1F727
S1130530112369F380E0D9DD882329F081E0D5DD3A
S1130540882309F080C082E0A3DD882339F082E0AB
S11305508F1508F446C0F39411E0E7CF81E0F81654
S113056009F47CC082E0F81609F48DC083E0F81623
S113057009F498C080912D01882329F480912A01DF
S1130580833009F487C080E0B0DD882309F06FC0B0
S1130590EE2009F060C090912D01809123019817FD
S11305A009F487C080911901891761F011E08091E5
S11305B028016091290140912B0120912C0101E037
S11305C096D1B3CF90912A0180911601981771F7B3
S11305D09091270180911301981741F711E0EE24BF
S11305E0E6CFF8948AE191E060E070E04AE050E000
S11305F0FED180E191E06AE070E04AE050E0F7D19A
S11306007894FF2411E091CF82E042DD882309F041
S113061087CF90912D0180911901981709F085CF0A
S113062090912A0180911601981709F07ECF90913C
S1130630270180911301981709F077CF81E017D132
S113064011E0EE2472CF80E191E07CDD8AE191E05B
S113065079DD11E06ACF90912D01A4CF84E291E07D
S11306606FEF70E065DE26DE37DE11E05ECF80914D
S1130670250160912601409128012091290101E082
S113068036D111E052CF8AE191E06FEF71E050DE94
S113069011E04BCF809127018E3108F074CF9ADEA0
S11306A011E043CF80E191E06FEF73E041DE11E0B0
S11306B03CCF20912A0180912001281709F072CFA4
S11306C03091270180911D01381709F06BCF80917B
S11306D01901981721F480911601281721F080E060
S11306E0C6D010E064CF809113013817C1F75ECFF4
S11306F01F920F920FB60F9211242F933F934F9393
S11307005F936F937F938F939F93AF93BF93EF9375
S1130710FF938ADEFF91EF91BF91AF919F918F91EB
S11307207F916F915F914F913F912F910F900FBEE9
S11307300F901F9018951092B9008CE08093B80028
S113074084E08093BC00089584EA8093BC00809187
S1130750BC0087FFFCCF089584E98093BC00089512
S11307608093BB0084E88093BC008091BC0087FF29
S1130770FCCF089584EC8093BC008091BC0087FF7B
S1130780FCCF8091BB00089584E88093BC008091E5
S1130790BC0087FFFCCF8091BB000895982FF8948C
S11307A084EA8093BC008091BC0087FFFCCF8EED6F
S11307B08093BB0084E88093BC008091BC0087FFD9
S11307C0FCCF9093BB0084E88093BC008091BC0074
S11307D087FFFCCF6093BB0084E88093BC008091CA
S11307E0BC0087FFFCCF78940895982F84EA809307
S11307F0BC008091BC0087FFFCCF8EED8093BB00D2
S113080084E88093BC008091BC0087FFFCCF909368
S1130810BB0084E88093BC008091BC0087FFFCCFC0
S113082084EA8093BC008091BC0087FFFCCF8FEDED
S11308308093BB0084E88093BC008091BC0087FF58
S1130840FCCF84E88093BC008091BC0087FFFCCF80
S11308508091BB00089584B18F6284B9279A3B9A32
S1130860439A81E58CBD289A299A4398089581304A
S113087011F043980895439A089590E0FC0131974C
S1130880E930F10510F080E00895E65EFF4F099429
S113089088E0089589E0089581E0089582E008954C
S11308A083E0089584E0089585E0089586E008953E
S11308B087E0089590E0FC013197E930F10510F0EC
S11308C080E00895ED5DFF4F099488E0089589E084
S11308D0089581E0089582E0089583E0089585E015
S11308E0089584E0089586E0089587E00895DF92EE
S11308F0EF92FF920F931F93162FF42EE22ED02E19
S1130900BCDF082F812FB9DF2A98299A8295807F2E
S1130910802B8EBD0DB407FEFDCF8F2DAEDF182FBB
S11309208E2DC8DF8295807F812B8EBD0DB407FE8E
S1130930FDCF2A9A8AE18A95F1F72A98299881E0CD
S1130940D81639F02F981F910F91FF90EF90DF90F8
S113095008952F9A1F910F91FF90EF90DF900895C3
S11309608EBD0DB407FEFDCF0895991B79E004C038
S1130970991F961708F0961B881F7A95C9F78095DA
S1130980089597FB092E07260AD077FD04D00CD0D2
S113099006D000201AF4709561957F4F0895F6F7FC
S11309A0909581959F4F0895AA1BBB1B51E107C0E9
S11309B0AA1FBB1FA617B70710F0A61BB70B881FEB
S11309C0991F5A95A9F780959095BC01CD0108957A
S11309D0DC01862FE82FF999FECF12BC05C0E1BDDA
S11309E0F89AE39500B40D924150C8F70895DC01DC
S11309F0862F02C02D9104D04150E0F70895262F90
S1130A00F999FECF1FBA12BC81BD20BD0FB6F89470
S1110A10FA9AF99A0FBE01960895F894FFCF52
S9030000FC
