:1000000019C028C027C026C025C024C023C031C0C5
:1000100021C020C01FC01EC01DC01CC01BC01AC0F4
:1000200019C018C017C016C015C014C013C012C024
:1000300011C010C011241FBECFEFD2E0DEBFCDBF74
:1000400011E0A0E0B1E001C01D92A630B107E1F7D8
:1000500047D046C1D5CFE1EBF0E08081846080835A
:100060008FE08093B300E0E7F0E0808182608083DE
:1000700008951F920F920FB60F9211240F900FBE8A
:100080000F901F901895813011F1823019F143E0E3
:1000900050E0E82FF0E029B1EE0FFF1FE050FF4FD6
:1000A00080819181880F991F906E30E002C0359554
:1000B00027954A95E2F721703070822B932B91831C
:1000C000808320E08050904F41F0822F089544E0DB
:1000D00050E0DFCF45E050E0DCCF21E0822F0895F3
:1000E0001F93CF93DF938AB1806C8AB95398549849
:1000F00055988BB188638BB95E9A5F9A5E985F98CA
:100100001CD0A9D080E060E040E0B0D0439A10E07D
:10011000C0E2DEE480E0B7DF882359F080E0612FA1
:1001200040E0A4D08BB180588BB980E0ACDF88234D
:10013000A9F7CE010197F1F7EDCF1092B9008CE04D
:100140008093B80084E08093BC00089584EA809393
:10015000BC008091BC0087FFFCCF089584E98093A8
:10016000BC0008958093BB0084E88093BC0080911C
:10017000BC0087FFFCCF089584EC8093BC00809185
:10018000BC0087FFFCCF8091BB00089584E880937A
:10019000BC008091BC0087FFFCCF8091BB0008951C
:1001A000982F84EA8093BC008091BC0087FFFCCF2D
:1001B0008EED8093BB0084E88093BC008091BC00EE
:1001C00087FFFCCF9093BB0084E88093BC008091B4
:1001D000BC0087FFFCCF6093BB0084E88093BC0029
:1001E0008091BC0087FFFCCF0895982F84EA80930C
:1001F000BC008091BC0087FFFCCF8EED8093BB00DC
:1002000084E88093BC008091BC0087FFFCCF909372
:10021000BB0084E88093BC008091BC0087FFFCCFCA
:1002200084EA8093BC008091BC0087FFFCCF8FEDF7
:100230008093BB0084E88093BC008091BC0087FF62
:10024000FCCF84E88093BC008091BC0087FFFCCF8A
:100250008091BB00089584B18F6284B93B9A439A20
:1002600081E58CBD289A299A43980895413089F1F7
:1002700050E08823F9F440E02A98299A21E030E000
:1002800002C0220F331F6A95E2F7452B832F99276F
:1002900087FD9A95482B4EBD0DB407FEFDCF2EBDB0
:1002A0000DB407FEFDCF2A9A8AE18A95F1F72A98C4
:1002B00029980895282F30E02150304081E090E0C7
:1002C00002C0880F991F2A95E2F7482F4295407F78
:1002D000D3CF5CE0CECF8EBD0DB407FEFDCF089529
:0402E000F894FFCFC0
:00000001FF
