S010000061746D65676134382E7372656339
S11300002BC045C044C043C042C041C040C03FC0F3
S11300103EC03DC03CC05EC33AC039C038C037C0E2
S113002036C035C034C033C032C031C030C02FC038
S11300302EC02DC021C422C423C424C425C426C474
S113004027C416C417C435C436C437C438C439C425
S11300503AC43BC42AC42BC411241FBECFEFD2E040
S1130060DEBFCDBF11E0A0E0B1E0EEEFF9E002C0E9
S113007005900D92A030B107D9F711E0A0E0B1E0EE
S113008001C01D92AE32B107E1F7FDD1B6C4B8CFBD
S1130090813011F1823019F143E050E0E82FF0E0B3
S11300A029B1EE0FFF1FE65FFE4F80819181880F1B
S11300B0991F906E30E002C0359527954A95E2F776
S11300C021703070822B932B9183808320E08050A9
S11300D0904F41F0822F089544E050E0DFCF45E097
S11300E050E0DCCF21E0822F0895813011F182307D
S11300F019F143E050E0E82FF0E029B1EE0FFF1FC3
S1130100EC5FFE4F80819181880F991F906E30E0E3
S113011002C0359527954A95E2F721703070822BFD
S1130120932B9183808320E08050904E41F0822F66
S1130130089544E050E0DFCF45E050E0DCCF21E01B
S1130140822F0895FC01138214821582168217826D
S1130150108611860895FC018681893098F08930D3
S113016041F18C30D0F437813F5F37838B3069F1B4
S11301709185918780852AE0829FC0011124380FE0
S11301803683089537813F5F378380852AE0829FD5
S1130190C0011124380F36830895108681E08783C7
S11301A031E080852AE0829FC0011124380F368314
S11301B0089581E08087178230E080852AE0829F5D
S11301C0C0011124380F3683089590E08185882377
S11301D081F691E09187CECFCF93DF93EC012C8110
S11301E0822F6AE0B2D3993069F02F5F2C838D811E
S11301F02AE0829FC00111242C81280F2B83DF91D8
S1130200CF9108958D81853021F01C828F5F8D837D
S1130210EECF1C821D82CE019EDFE9CFCF93DF9308
S1130220EC019B01FA0181858823A9F09881913022
S1130230E9F0868190E00C966AE070E092D36883DE
S1130240868190E00C966AE070E08BD3F90180839C
S1130250DF91CF9108959881913069F0FB018081FD
S11302609883D9018C93DF91CF910895DB018C9110
S11302708230F9F6F8CFDB018C91823089F718824D
S11302801C92F1CFF89410928000E1E8F0E08081B4
S11302908D60808381E49FE090938900809388003F
S11302A0EFE6F0E08081826080837894089588E0AE
S11302B06EE866D208958091290190E0877090706D
S11302C082959295907F9827807F98276091280146
S11302D06F70682B81E054D2089580912B018F7048
S11302E0806460912D016295660F607E682B809119
S11302F02C0190E08170907082959295907F982760
S1130300807F9827682B82E03BD208956091250175
S11303106F70606880E034D20895EF92FF920F937B
S11303201F93DF93CF9300D0CDB7DEB78C017B0151
S113033080E0AEDE882371F1C8010DDF80910001F9
S1130340909101018E159F0590F50196FF24803848
S1130350910590F19093010180930001F80180854B
S1130360898387818A83CE010196BE016E5F7F4FA8
S1130370A80154DFF801848165814A8129810F2D08
S1130380A6D20F900F90CF91DF911F910F91FF9004
S1130390EF90089581E07CDE882381F2C8011CDFA0
S11303A080910001909101018E159F0570F280E00B
S11303B090E0FF24F394CECFFF24F394CBCF0F939C
S11303C0809103018F5F809303018F3F49F0209157
S11303D00201822F622F422F00E079D20F910895FB
S11303E080910201893021F08F5F80930201EFCF69
S11303F080E0FBCF0F935FDF70DF80912801609175
S1130400290140912B0120912C0101E060D20F9130
S113041008951F9380E0D9D1282F2F7020932501B0
S113042082958770809326011AE0819FC001112470
S1130430280F2093240181E0C8D1282F2F70209306
S1130440280182958F7080932901819FC001112416
S1130450280F2093270182E0B8D1982F9F709093A2
S11304602B0182958F70282F217020932C01869563
S1130470817080932D01219F90011124920F9093FC
S11304802A011F910895EF92FF920F931F93CF9328
S1130490DF9343983B9A8AB1806C8AB953985498F5
S11304A055988BB188638BB95E9A5F9A36D1C3D164
S11304B080E0CDD1E7DEADDF29DF0FDF83E068E048
S11304C05FD187E061E45CD1F2DE8AE191E060E033
S11304D070E04AE050E06CD280E191E06AE070E0C4
S11304E04AE050E065D281E0B2D1FF2411E0EE246D
S11304F0C0EDD7E011C080E0CBDD882329F481E092
S1130500C7DD882309F472C081E0A1D111E0EE2493
S1130510E394CE010197F1F7112369F380E0E5DD5F
S1130520882329F081E0E1DD882309F07EC082E0A0
S1130530AFDD882339F082E08F1508F446C0F394C8
S113054011E0E7CF81E0F81609F47AC082E0F816EA
S113055009F48BC083E0F81609F496C080912D014C
S1130560882329F480912A01833009F485C080E02E
S1130570BCDD882309F06DC0EE2009F05EC09091C7
S11305802D0180912301981709F485C080911901E8
S1130590891761F011E0809128016091290140914F
S11305A02B0120912C0101E092D1B3CF90912A012B
S11305B080911601981771F790912701809113018A
S11305C0981741F711E0EE24E6CF8AE191E060E06C
S11305D070E04AE050E0FBD180E191E06AE070E035
S11305E04AE050E0F4D1FF2411E093CF82E050DDE3
S11305F0882309F089CF90912D01809119019817D2
S113060009F087CF90912A0180911601981709F07B
S113061080CF9091270180911301981709F079CF29
S113062081E015D111E0EE2474CF80E191E08ADD00
S11306308AE191E087DD11E06CCF90912D01A6CF86
S113064084E291E06FEF70E068DE35DE46DE11E0B3
S113065060CF80912501609126014091280120916D
S1130660290101E034D111E054CF8AE191E06FEF28
S113067071E053DE11E04DCF809127018E3108F0F7
S113068076CF9DDE11E045CF80E191E06FEF73E01E
S113069044DE11E03ECF20912A01809120012817E9
S11306A009F074CF3091270180911D01381709F0AA
S11306B06DCF80911901981721F4809116012817A4
S11306C021F080E0C4D010E066CF80911301381788
S11306D0C1F760CF1F920F920FB60F9211242F9380
S11306E03F934F935F936F937F938F939F93AF93B6
S11306F0BF93EF93FF938DDEFF91EF91BF91AF9185
S11307009F918F917F916F915F914F913F912F9125
S11307100F900FBE0F901F9018951092B9008CE0A7
S11307208093B80084E08093BC00089584EA8093A9
S1130730BC008091BC0087FFFCCF089584E98093BE
S1130740BC0008958093BB0084E88093BC00809132
S1130750BC0087FFFCCF089584EC8093BC0080919B
S1130760BC0087FFFCCF8091BB00089584E8809390
S1130770BC008091BC0087FFFCCF8091BB00089532
S1130780982F84EA8093BC008091BC0087FFFCCF43
S11307908EED8093BB0084E88093BC008091BC0004
S11307A087FFFCCF9093BB0084E88093BC008091CA
S11307B0BC0087FFFCCF6093BB0084E88093BC003F
S11307C08091BC0087FFFCCF0895982F84EA809322
S11307D0BC008091BC0087FFFCCF8EED8093BB00F2
S11307E084E88093BC008091BC0087FFFCCF909389
S11307F0BB0084E88093BC008091BC0087FFFCCFE1
S113080084EA8093BC008091BC0087FFFCCF8FED0D
S11308108093BB0084E88093BC008091BC0087FF78
S1130820FCCF84E88093BC008091BC0087FFFCCFA0
S11308308091BB00089584B18F6284B9279A3B9A52
S1130840439A81E58CBD289A299A4398089581306A
S113085011F043980895439A089590E0FC0131976C
S1130860E930F10510F080E00895E65EFF4F099449
S113087088E0089589E0089581E0089582E008956C
S113088083E0089584E0089585E0089586E008955E
S113089087E0089590E0FC013197E930F10510F00C
S11308A080E00895ED5DFF4F099488E0089589E0A4
S11308B0089581E0089582E0089583E0089585E035
S11308C0089584E0089586E0089587E00895DF920E
S11308D0EF92FF920F931F93162FF42EE22ED02E39
S11308E0BCDF082F812FB9DF2A98299A8295807F4F
S11308F0802B8EBD0DB407FEFDCF8F2DAEDF182FDC
S11309008E2DC8DF8295807F812B8EBD0DB407FEAE
S1130910FDCF2A9A8AE18A95F1F72A98299881E0ED
S1130920D81639F02F981F910F91FF90EF90DF9018
S113093008952F9A1F910F91FF90EF90DF900895E3
S11309408EBD0DB407FEFDCF0895991B79E004C058
S1130950991F961708F0961B881F7A95C9F78095FA
S1130960089597FB092E07260AD077FD04D00CD0F2
S113097006D000201AF4709561957F4F0895F6F71C
S1130980909581959F4F0895AA1BBB1B51E107C009
S1130990AA1FBB1FA617B70710F0A61BB70B881F0B
S11309A0991F5A95A9F780959095BC01CD0108959A
S11309B0DC01862FE82FF999FECF12BC05C0E1BDFA
S11309C0F89AE39500B40D924150C8F70895DC01FC
S11309D0862F02C02D9104D04150E0F70895262FB0
S11309E0F999FECF1FBA12BC81BD20BD0FB6F89491
S11109F0FA9AF99A0FBE01960895F894FFCF73
S9030000FC
